{
  "_format": "hh-sol-artifact-1",
  "contractName": "Tornado",
  "sourceName": "contracts/Tornado.sol",
  "abi": [
    {
      "inputs": [
        {
          "internalType": "address",
          "name": "_hasher",
          "type": "address"
        },
        {
          "internalType": "address",
          "name": "_verifier",
          "type": "address"
        }
      ],
      "stateMutability": "nonpayable",
      "type": "constructor"
    },
    {
      "anonymous": false,
      "inputs": [
        {
          "indexed": false,
          "internalType": "uint256",
          "name": "root",
          "type": "uint256"
        },
        {
          "indexed": false,
          "internalType": "uint256[10]",
          "name": "hashPairings",
          "type": "uint256[10]"
        },
        {
          "indexed": false,
          "internalType": "uint8[10]",
          "name": "pairDirection",
          "type": "uint8[10]"
        }
      ],
      "name": "Deposit",
      "type": "event"
    },
    {
      "anonymous": false,
      "inputs": [
        {
          "indexed": false,
          "internalType": "address",
          "name": "to",
          "type": "address"
        },
        {
          "indexed": false,
          "internalType": "uint256",
          "name": "nullifierHash",
          "type": "uint256"
        }
      ],
      "name": "Withdrawal",
      "type": "event"
    },
    {
      "inputs": [
        {
          "internalType": "uint256",
          "name": "",
          "type": "uint256"
        }
      ],
      "name": "commitments",
      "outputs": [
        {
          "internalType": "bool",
          "name": "",
          "type": "bool"
        }
      ],
      "stateMutability": "view",
      "type": "function"
    },
    {
      "inputs": [],
      "name": "denomination",
      "outputs": [
        {
          "internalType": "uint256",
          "name": "",
          "type": "uint256"
        }
      ],
      "stateMutability": "view",
      "type": "function"
    },
    {
      "inputs": [
        {
          "internalType": "uint256",
          "name": "_commitment",
          "type": "uint256"
        }
      ],
      "name": "deposit",
      "outputs": [],
      "stateMutability": "payable",
      "type": "function"
    },
    {
      "inputs": [],
      "name": "nextLeafIdx",
      "outputs": [
        {
          "internalType": "uint256",
          "name": "",
          "type": "uint256"
        }
      ],
      "stateMutability": "view",
      "type": "function"
    },
    {
      "inputs": [
        {
          "internalType": "uint256",
          "name": "",
          "type": "uint256"
        }
      ],
      "name": "nullifierHashes",
      "outputs": [
        {
          "internalType": "bool",
          "name": "",
          "type": "bool"
        }
      ],
      "stateMutability": "view",
      "type": "function"
    },
    {
      "inputs": [
        {
          "internalType": "uint256",
          "name": "",
          "type": "uint256"
        }
      ],
      "name": "roots",
      "outputs": [
        {
          "internalType": "bool",
          "name": "",
          "type": "bool"
        }
      ],
      "stateMutability": "view",
      "type": "function"
    },
    {
      "inputs": [],
      "name": "treeLevel",
      "outputs": [
        {
          "internalType": "uint256",
          "name": "",
          "type": "uint256"
        }
      ],
      "stateMutability": "view",
      "type": "function"
    },
    {
      "inputs": [
        {
          "internalType": "uint256[2]",
          "name": "_pA",
          "type": "uint256[2]"
        },
        {
          "internalType": "uint256[2][2]",
          "name": "_pB",
          "type": "uint256[2][2]"
        },
        {
          "internalType": "uint256[2]",
          "name": "_pC",
          "type": "uint256[2]"
        },
        {
          "internalType": "uint256[2]",
          "name": "input",
          "type": "uint256[2]"
        }
      ],
      "name": "withdraw",
      "outputs": [],
      "stateMutability": "payable",
      "type": "function"
    }
  ],
  "bytecode": "0x6080604052600a600355670de0b6b3a764000060045560006005556040518061014001604052807f33418cd1669b4e7f4bf473ec2db9a489b3d6f9f11b91d0b3b6004432ab53d60b81526020017f350ffb7c45ccf8940c163b192252495b614def57272b6f8d9a53a5b3e44ef8bd81526020017fc8acb7af851baf91a82b1ad46b01ac506ce80387170890dea377d21e8520258481526020017f5171d273154b2764aa5903210e16bd1899b18648d1358d41887a113227e9acc581526020017f986c06cb04d613f57cf7a1da410e0f22c794e1ec1ae125898cfc9662a5e5be5981526020017f6eb9a05106eff3031621027680204b2e9326b0e5191bd62f3cd7bf7f6d94d02781526020017fa1cbc8691493398c061f547b4882edbb6a38ce1730c8a2605e9d8138d4ad122681526020017f850aa72f3d8bc65181e9c29d76f7614e2f939ade9442abac29fc8a0329deeffd81526020017fe9c6f678752dbfc89028bf8b9b1cce608b34b742b75fbae878ec2c6ae803dc1e81526020017fa9e22c2e1f4531bc4389032bb472b97c25a7298d27ba4fefd75439a1be46f77f815250600a90600a620001b292919062000278565b50348015620001c057600080fd5b5060405162001bd138038062001bd18339818101604052810190620001e6919062000346565b600160008190555081600260006101000a81548173ffffffffffffffffffffffffffffffffffffffff021916908373ffffffffffffffffffffffffffffffffffffffff16021790555080600160006101000a81548173ffffffffffffffffffffffffffffffffffffffff021916908373ffffffffffffffffffffffffffffffffffffffff16021790555050506200038d565b82600a8101928215620002aa579160200282015b82811115620002a95782518255916020019190600101906200028c565b5b509050620002b99190620002bd565b5090565b5b80821115620002d8576000816000905550600101620002be565b5090565b600080fd5b600073ffffffffffffffffffffffffffffffffffffffff82169050919050565b60006200030e82620002e1565b9050919050565b620003208162000301565b81146200032c57600080fd5b50565b600081519050620003408162000315565b92915050565b6000806040838503121562000360576200035f620002dc565b5b600062000370858286016200032f565b925050602062000383858286016200032f565b9150509250929050565b611834806200039d6000396000f3fe60806040526004361061007b5760003560e01c8063b6b55f251161004e578063b6b55f2514610150578063b8e795641461016c578063c2b40ae414610197578063c78784d7146101d45761007b565b80631f79a1e91461008057806345e0523f146100bd57806349ce8997146100e85780638bca6d1614610125575b600080fd5b34801561008c57600080fd5b506100a760048036038101906100a29190610b29565b6101f0565b6040516100b49190610b71565b60405180910390f35b3480156100c957600080fd5b506100d2610210565b6040516100df9190610b9b565b60405180910390f35b3480156100f457600080fd5b5061010f600480360381019061010a9190610b29565b610216565b60405161011c9190610b71565b60405180910390f35b34801561013157600080fd5b5061013a610236565b6040516101479190610b9b565b60405180910390f35b61016a60048036038101906101659190610b29565b61023c565b005b34801561017857600080fd5b50610181610679565b60405161018e9190610b9b565b60405180910390f35b3480156101a357600080fd5b506101be60048036038101906101b99190610b29565b61067f565b6040516101cb9190610b71565b60405180910390f35b6101ee60048036038101906101e99190610bff565b61069f565b005b60086020528060005260406000206000915054906101000a900460ff1681565b60055481565b60096020528060005260406000206000915054906101000a900460ff1681565b60045481565b610244610a2d565b6004543414610288576040517f08c379a000000000000000000000000000000000000000000000000000000000815260040161027f90610cc5565b60405180910390fd5b6009600082815260200190815260200160002060009054906101000a900460ff16156102e9576040517f08c379a00000000000000000000000000000000000000000000000000000000081526004016102e090610d31565b60405180910390fd5b60035460026102f89190610eb3565b6005541061033b576040517f08c379a000000000000000000000000000000000000000000000000000000000815260040161033290610f4a565b60405180910390fd5b6000610345610a86565b61034d610aa9565b600060055490506000859050600080610364610acc565b60005b6003548160ff1610156105b55760006002876103839190610f99565b0361040c57849350600a8160ff16600a81106103a2576103a1610fca565b5b01549250600a8160ff16600a81106103bd576103bc610fca565b5b0154888260ff16600a81106103d5576103d4610fca565b5b6020020181815250506000878260ff16600a81106103f6576103f5610fca565b5b602002019060ff16908160ff168152505061048e565b600760008260ff1660ff168152602001908152602001600020549350849250600760008260ff1660ff16815260200190815260200160002054888260ff16600a811061045b5761045a610fca565b5b6020020181815250506001878260ff16600a811061047c5761047b610fca565b5b602002019060ff16908160ff16815250505b84600760008360ff1660ff1681526020019081526020016000208190555083826000600281106104c1576104c0610fca565b5b60200201818152505082826001600281106104df576104de610fca565b5b6020020181815250506000600260009054906101000a900473ffffffffffffffffffffffffffffffffffffffff1673ffffffffffffffffffffffffffffffffffffffff1663d622e5a4620249f0858e6040518463ffffffff1660e01b815260040161054b9291906110a4565b6020604051808303818786fa158015610568573d6000803e3d6000fd5b50505050506040513d601f19601f8201168201806040525081019061058d91906110e2565b905080955060028761059f919061110f565b96505080806105ad9061114d565b915050610367565b508397506001600660008a815260200190815260200160002060006101000a81548160ff0219169083151502179055506001600560008282546105f89190611176565b925050819055506001600960008b815260200190815260200160002060006101000a81548160ff0219169083151502179055507fe6ab8667cb740d6c65a4ad321c031eb42f6c5085d5753238d1b2e1e370c1348388888860405161065e939291906112d9565b60405180910390a15050505050505050610676610a7c565b50565b60035481565b60066020528060005260406000206000915054906101000a900460ff1681565b6106a7610a2d565b6000816000600281106106bd576106bc610fca565b5b602002013590506000826001600281106106da576106d9610fca565b5b602002013590506008600082815260200190815260200160002060009054906101000a900460ff1615610742576040517f08c379a00000000000000000000000000000000000000000000000000000000081526004016107399061135e565b60405180910390fd5b6006600083815260200190815260200160002060009054906101000a900460ff166107a2576040517f08c379a0000000000000000000000000000000000000000000000000000000008152600401610799906113ca565b60405180910390fd5b60003373ffffffffffffffffffffffffffffffffffffffff1690506000600160009054906101000a900473ffffffffffffffffffffffffffffffffffffffff1673ffffffffffffffffffffffffffffffffffffffff168888886040518060600160405280898152602001888152602001878152506040516024016108299493929190611546565b6040516020818303038152906040526311479fea60e01b6020820180517bffffffffffffffffffffffffffffffffffffffffffffffffffffffff838183161783525050505060405161087b91906115fe565b6000604051808303816000865af19150503d80600081146108b8576040519150601f19603f3d011682016040523d82523d6000602084013e6108bd565b606091505b5050905080610901576040517f08c379a00000000000000000000000000000000000000000000000000000000081526004016108f890611661565b60405180910390fd5b60016008600085815260200190815260200160002060006101000a81548160ff021916908315150217905550600033905060008173ffffffffffffffffffffffffffffffffffffffff1660045460405161095a906116a7565b60006040518083038185875af1925050503d8060008114610997576040519150601f19603f3d011682016040523d82523d6000602084013e61099c565b606091505b50509050806109e0576040517f08c379a00000000000000000000000000000000000000000000000000000000081526004016109d790611708565b60405180910390fd5b7f7fcf532c15f0a6db0bd6d0e038bea71d30d808c7d98cb3bf7268a95bf5081b653386604051610a11929190611769565b60405180910390a1505050505050610a27610a7c565b50505050565b600260005403610a72576040517f08c379a0000000000000000000000000000000000000000000000000000000008152600401610a69906117de565b60405180910390fd5b6002600081905550565b6001600081905550565b604051806101400160405280600a90602082028036833780820191505090505090565b604051806101400160405280600a90602082028036833780820191505090505090565b6040518060400160405280600290602082028036833780820191505090505090565b600080fd5b6000819050919050565b610b0681610af3565b8114610b1157600080fd5b50565b600081359050610b2381610afd565b92915050565b600060208284031215610b3f57610b3e610aee565b5b6000610b4d84828501610b14565b91505092915050565b60008115159050919050565b610b6b81610b56565b82525050565b6000602082019050610b866000830184610b62565b92915050565b610b9581610af3565b82525050565b6000602082019050610bb06000830184610b8c565b92915050565b600080fd5b600081905082602060020282011115610bd757610bd6610bb6565b5b92915050565b600081905082604060020282011115610bf957610bf8610bb6565b5b92915050565b6000806000806101408587031215610c1a57610c19610aee565b5b6000610c2887828801610bbb565b9450506040610c3987828801610bdd565b93505060c0610c4a87828801610bbb565b925050610100610c5c87828801610bbb565b91505092959194509250565b600082825260208201905092915050565b7f696e636f72726563742d616d6f756e7400000000000000000000000000000000600082015250565b6000610caf601083610c68565b9150610cba82610c79565b602082019050919050565b60006020820190508181036000830152610cde81610ca2565b9050919050565b7f6475706c69636174652d636f6d6d69746d656e742d6861736800000000000000600082015250565b6000610d1b601983610c68565b9150610d2682610ce5565b602082019050919050565b60006020820190508181036000830152610d4a81610d0e565b9050919050565b7f4e487b7100000000000000000000000000000000000000000000000000000000600052601160045260246000fd5b60008160011c9050919050565b6000808291508390505b6001851115610dd757808604811115610db357610db2610d51565b5b6001851615610dc25780820291505b8081029050610dd085610d80565b9450610d97565b94509492505050565b600082610df05760019050610eac565b81610dfe5760009050610eac565b8160018114610e145760028114610e1e57610e4d565b6001915050610eac565b60ff841115610e3057610e2f610d51565b5b8360020a915084821115610e4757610e46610d51565b5b50610eac565b5060208310610133831016604e8410600b8410161715610e825782820a905083811115610e7d57610e7c610d51565b5b610eac565b610e8f8484846001610d8d565b92509050818404811115610ea657610ea5610d51565b5b81810290505b9392505050565b6000610ebe82610af3565b9150610ec983610af3565b9250610ef67fffffffffffffffffffffffffffffffffffffffffffffffffffffffffffffffff8484610de0565b905092915050565b7f747265652d66756c6c0000000000000000000000000000000000000000000000600082015250565b6000610f34600983610c68565b9150610f3f82610efe565b602082019050919050565b60006020820190508181036000830152610f6381610f27565b9050919050565b7f4e487b7100000000000000000000000000000000000000000000000000000000600052601260045260246000fd5b6000610fa482610af3565b9150610faf83610af3565b925082610fbf57610fbe610f6a565b5b828206905092915050565b7f4e487b7100000000000000000000000000000000000000000000000000000000600052603260045260246000fd5b600060029050919050565b600081905092915050565b6000819050919050565b61102281610af3565b82525050565b60006110348383611019565b60208301905092915050565b6000602082019050919050565b61105681610ff9565b6110608184611004565b925061106b8261100f565b8060005b8381101561109c5781516110838782611028565b965061108e83611040565b92505060018101905061106f565b505050505050565b60006060820190506110b9600083018561104d565b6110c66040830184610b8c565b9392505050565b6000815190506110dc81610afd565b92915050565b6000602082840312156110f8576110f7610aee565b5b6000611106848285016110cd565b91505092915050565b600061111a82610af3565b915061112583610af3565b92508261113557611134610f6a565b5b828204905092915050565b600060ff82169050919050565b600061115882611140565b915060ff820361116b5761116a610d51565b5b600182019050919050565b600061118182610af3565b915061118c83610af3565b92508282019050808211156111a4576111a3610d51565b5b92915050565b6000600a9050919050565b600081905092915050565b6000819050919050565b6000602082019050919050565b6111e0816111aa565b6111ea81846111b5565b92506111f5826111c0565b8060005b8381101561122657815161120d8782611028565b9650611218836111ca565b9250506001810190506111f9565b505050505050565b6000600a9050919050565b600081905092915050565b6000819050919050565b61125781611140565b82525050565b6000611269838361124e565b60208301905092915050565b6000602082019050919050565b61128b8161122e565b6112958184611239565b92506112a082611244565b8060005b838110156112d15781516112b8878261125d565b96506112c383611275565b9250506001810190506112a4565b505050505050565b60006102a0820190506112ef6000830186610b8c565b6112fc60208301856111d7565b61130a610160830184611282565b949350505050565b7f616c72656164792d7370656e7400000000000000000000000000000000000000600082015250565b6000611348600d83610c68565b915061135382611312565b602082019050919050565b600060208201905081810360008301526113778161133b565b9050919050565b7f6e6f742d726f6f74000000000000000000000000000000000000000000000000600082015250565b60006113b4600883610c68565b91506113bf8261137e565b602082019050919050565b600060208201905081810360008301526113e3816113a7565b9050919050565b82818337505050565b6113ff604083836113ea565b5050565b600060029050919050565b600081905092915050565b6000819050919050565b61142f604083836113ea565b5050565b600061143f8383611423565b60408301905092915050565b600082905092915050565b6000604082019050919050565b61146c81611403565b611476818461140e565b925061148182611419565b8060005b838110156114ba57611497828461144b565b6114a18782611433565b96506114ac83611456565b925050600181019050611485565b505050505050565b600060039050919050565b600081905092915050565b6000819050919050565b6000602082019050919050565b6114f8816114c2565b61150281846114cd565b925061150d826114d8565b8060005b8381101561153e5781516115258782611028565b9650611530836114e2565b925050600181019050611511565b505050505050565b60006101608201905061155c60008301876113f3565b6115696040830186611463565b61157660c08301856113f3565b6115846101008301846114ef565b95945050505050565b600081519050919050565b600081905092915050565b60005b838110156115c15780820151818401526020810190506115a6565b60008484015250505050565b60006115d88261158d565b6115e28185611598565b93506115f28185602086016115a3565b80840191505092915050565b600061160a82846115cd565b915081905092915050565b7f696e76616c69642d70726f6f6600000000000000000000000000000000000000600082015250565b600061164b600d83610c68565b915061165682611615565b602082019050919050565b6000602082019050818103600083015261167a8161163e565b9050919050565b50565b6000611691600083611598565b915061169c82611681565b600082019050919050565b60006116b282611684565b9150819050919050565b7f7061796d656e742d6661696c6564000000000000000000000000000000000000600082015250565b60006116f2600e83610c68565b91506116fd826116bc565b602082019050919050565b60006020820190508181036000830152611721816116e5565b9050919050565b600073ffffffffffffffffffffffffffffffffffffffff82169050919050565b600061175382611728565b9050919050565b61176381611748565b82525050565b600060408201905061177e600083018561175a565b61178b6020830184610b8c565b9392505050565b7f5265656e7472616e637947756172643a207265656e7472616e742063616c6c00600082015250565b60006117c8601f83610c68565b91506117d382611792565b602082019050919050565b600060208201905081810360008301526117f7816117bb565b905091905056fea264697066735822122052e8dbe6ce4bf7f819c27b37d0936a94d25a27a7d3c3802c1b06d94e00ee6dca64736f6c63430008110033",
  "linkReferences": {},
  "deployedLinkReferences": {}
}